01#BPA#2020070000000000011111SMS DE CIDADE MODELO          SMSCM 08358046000199SMS DE CIDADE MODELO                    MSGH-1.0   
03238063320200798001628666875122350520200716000010101040024703404696479515F          03800000101               BPA SERGIO ARAUJO CORREIA LIMA     1981111001    010                                        999BLOCO I                       NI        206                                +55-11-3014SERGIO.CORREIASS@DATASUS.GOV.BR                   
03238063320200798001628666875122350520200716000020301100039703404696479515F          03800000101               BPA SERGIO ARAUJO CORREIA LIMA     1981111001    010                                        999BLOCO I                       NI        206                                +55-11-3014SERGIO.CORREIASS@DATASUS.GOV.BR                   
03238063320200798001628666875122350520200716000030101040024703404696479515F          03800000101               BPA SERGIO ARAUJO CORREIA LIMA     1981111001    010                                        999BLOCO I                       NI        206                                +55-11-3014SERGIO.CORREIASS@DATASUS.GOV.BR                   
03238063320200798001628666875122350520200716000040301100039703404696479515F          03800000101               BPA SERGIO ARAUJO CORREIA LIMA     1981111001    010                                        999BLOCO I                       NI        206                                +55-11-3014SERGIO.CORREIASS@DATASUS.GOV.BR                   
03238063320200798001628666875122350520200716000050101040024110525916150007F240725    02600000101               BPA MARIANA MARA ROCHA DE QUEIROZ  1993112103    010                                59945000081CESAR  ROCHA                  CASA      99   CENTRO                        84981561303MARIANA.MARA@LIVE.COM                             
03238063320200798001628666875122350520200716000060301100039110525916150007F240725    02600000101               BPA MARIANA MARA ROCHA DE QUEIROZ  1993112103    010                                59945000081CESAR  ROCHA                  CASA      99   CENTRO                        84981561303MARIANA.MARA@LIVE.COM                             
03238063320200798001628666875122350520200716000070101040024110525916150007F240725    02600000101               BPA MARIANA MARA ROCHA DE QUEIROZ  1993112103    010                                59945000081CESAR  ROCHA                  CASA      99   CENTRO                        84981561303MARIANA.MARA@LIVE.COM                             
03238063320200798001628666875122350520200716000080301100039110525916150007F240725    02600000101               BPA MARIANA MARA ROCHA DE QUEIROZ  1993112103    010                                59945000081CESAR  ROCHA                  CASA      99   CENTRO                        84981561303MARIANA.MARA@LIVE.COM                             
03238063320200798001628666875122350520200716000090101040024703404696479515F          03800000101               BPA SERGIO ARAUJO CORREIA LIMA     1981111001    010                                        999BLOCO I                       NI        206                                +55-11-3014SERGIO.CORREIASS@DATASUS.GOV.BR                   
03238063320200798001628666875122350520200716000100301100039703404696479515F          03800000101               BPA SERGIO ARAUJO CORREIA LIMA     1981111001    010                                        999BLOCO I                       NI        206                                +55-11-3014SERGIO.CORREIASS@DATASUS.GOV.BR                   
03238063320200798001628666875122350520200716000110101040024110525916150007F240725    02600000101               BPA MARIANA MARA ROCHA DE QUEIROZ  1993112103    010                                59945000081CESAR  ROCHA                  CASA      99   CENTRO                        84981561303MARIANA.MARA@LIVE.COM                             
03238063320200798001628666875122350520200716000120301100039110525916150007F240725    02600000101               BPA MARIANA MARA ROCHA DE QUEIROZ  1993112103    010                                59945000081CESAR  ROCHA                  CASA      99   CENTRO                        84981561303MARIANA.MARA@LIVE.COM                             
03238063320200798001628666875122350520200716000130101040024703404696479515F          03800000101               BPA SERGIO ARAUJO CORREIA LIMA     1981111001    010                                        999BLOCO I                       NI        206                                +55-11-3014SERGIO.CORREIASS@DATASUS.GOV.BR                   
03238063320200798001628666875122350520200716000140301100039703404696479515F          03800000101               BPA SERGIO ARAUJO CORREIA LIMA     1981111001    010                                        999BLOCO I                       NI        206                                +55-11-3014SERGIO.CORREIASS@DATASUS.GOV.BR                   
