01null 2021110000110000021408SMS DE TABOLEIRO GRANDE       SMSTG 08157810000168SMS DE TABOLEIRO GRANDE                 MSGH-1.0   
022380455202111225125001010211020036000000002BPA
022380455202111223505001020301100039000000003BPA
022380455202111223505001030301060118000000003BPA
022380455202111225125001040301010072027000001BPA
022380455202111225125001050401010066000000001BPA
022380455202111322205001060301100012000000002BPA
022380455202111225125001070401010112000000001BPA
022380455202111223505001080214010015000000001BPA
03238045520211198001629716683322512520211108001010404020097700402093501644M240725    02700000301             BPAFRANCISCO LEANDRO DE MORAIS PI1994062003    010                                59945000081CESAR ROCHA                             S/N  CENTRO                                                                                     
03238045520211198001628043236532220520211125001020301100284703404696479515M240725    04000000101             BPASERGIO ARAUJO CORREIA LIMA    1981111001    010                                59945000999BLOCO I                                 206  NI                                                                                         
