01#BPA#2019030000090000021357SMS DE CIDADE MODELO          SMSCM 08358046000199SMS DE CIDADE MODELO                    MSGH-1.0   
03238063320190398001628666875122350520190326001010301100039703404696479515M241360    03300000101             BPASERGIO ARAUJO CORREIA DE LIMA 1985111201    010                                59856000081SITIO LAGOA CERCADA                     SN   ZONA RURAL                                                                                 
03238063320190398001628666875122350520190326001020214010015703404696479515M241360    03300000101             BPASERGIO ARAUJO CORREIA DE LIMA 1985111201    010                                59856000081SITIO LAGOA CERCADA                     SN   ZONA RURAL                                                                                 
03238063320190398001628666875122350520190326001030301010030703404696479515M241360    03300000101             BPASERGIO ARAUJO CORREIA DE LIMA 1985111201    010                                59856000081SITIO LAGOA CERCADA                     SN   ZONA RURAL                                                                                 
03238063320190370060349834796822512520190326001010301010064703404696479515M241360    03300000101             BPASERGIO ARAUJO CORREIA DE LIMA 1985111201    010                                59856000081SITIO LAGOA CERCADA                     SN   ZONA RURAL                                                                                 
03238063320190398001628666875122350520190326001040301100039708505351242074M241360    02400000101             BPAFRANCISCO LEANDRO DE MORAIS PI1994062003    010                                59856000081RUA DAS FLORES                          85   CENTRO                                   leandro.morais@email.com                          
03238063320190398001628666875122350520190326001050301010030708505351242074M241360    02400000101             BPAFRANCISCO LEANDRO DE MORAIS PI1994062003    010                                59856000081RUA DAS FLORES                          85   CENTRO                                   leandro.morais@email.com                          
03238063320190398001628666875122350520190326001060301010030914590197960009F241360    04000000101             BPAMARIA AUGUSTA SILVA           1978100101    010                                59856000081RUA DAS TAPIOCAS              APTO 02   632  CENTRO                                                                                     
03238063320190370060349834796822512520190326001020301010064914590197960009F241360    04000000101             BPAMARIA AUGUSTA SILVA           1978100101    010                                59856000081RUA DAS TAPIOCAS              APTO 02   632  CENTRO                                                                                     
