01#BPA#2022030000110000021878SMS DE TABOLEIRO GRANDE       SMSTG 08157810000168SMS DE TABOLEIRO GRANDE                 MSGH-1.0   
022380455202203223505001010301100039000000001BPA
022380455202203223505001020301060118000000002BPA
022380455202203225125001030301010072036000001BPA
022380455202203225125001040301010072040000001BPA
022380455202203225125001050301010072027000001BPA
022380455202203225125001060204010098000000003BPA
022380455202203225125001070204020069000000002BPA
022380455202203223505001080214010015000000001BPA
03238045520220398001600001760522512520220312001010301100284706701507223614M150611    03600000101             BPAGLEBERTON CLAYTON LIMA CAVALCA1985111403    010                                68709000081SAO BENEDITO                            S/N  SAO BENEDITO                                                                               
03238045520220398001600001760522512520220312001020301100276706701507223614M150611    03600000201             BPAGLEBERTON CLAYTON LIMA CAVALCA1985111403    010                                68709000081SAO BENEDITO                            S/N  SAO BENEDITO                                                                               
